:020000040800F2
:10000000E8BB00204501000849060008BD050008BE
:1000100045060008FD030008A50F000800000000C9
:100020000000000000000000000000005907000868
:10003000B10400080000000035070008450800086A
:100040005F0100085F0100085F0100085F01000810
:100050005F0100085F0100085F0100085F01000800
:100060005F0100085F0100085F0100085F010008F0
:100070005F0100085F0100085F0100085F010008E0
:100080005F0100085F0100085F0100085F010008D0
:100090005F0100085F0100085F0100085F010008C0
:1000A0005F0100085F0100085F0100085F010008B0
:1000B0005F01000829090008910900085F01000894
:1000C0005F0100085F0100085F0100085F01000890
:1000D0005F010008190C00084D0D0008D50E00083E
:1000E0005F0100085F0100085F0100085F01000870
:1000F0005F0100085F0100085F0100085F01000860
:100100005F0100085F0100085F0100085F0100084F
:100110005F0100085F0100085F0100085F0100083F
:100120005F0100085F0100085F0100085F0100082F
:10013000DFF80CD000F030F9004800471510000837
:10014000E8BB00200648804706480047FEE7FEE778
:10015000FEE7FEE7FEE7FEE7FEE7FEE7FEE7FEE777
:10016000C908000831010008F0B480EA0102D40F88
:100170004200B2EB410F02D20246084611464A0045
:1001800042D0C30DDDB2C1F3C752AD1A202D35DA0E
:10019000C1F3160141F4000204B15242C5F1200638
:1001A00002FA06F12A411044B3EBD05F23D0C4B168
:1001B000012DA0EBC35009DCF0BC4FF0004202EA75
:1001C000C352DBB200F5000000F0B8B8400000F107
:1001D000807000EBC350A0F1807040EAD1704900FC
:1001E00009E0490841EAC071A0EBC35000F50000E6
:1001F000400800EBC350F0BC00F097B86142012208
:1002000002EB4101001BF6E7F0BC704781F00041B2
:10021000AAE780F00040A7E780EA010210B502F0EB
:100220000043400022D04A001FD0010E01EB1261B2
:10023000C0F35600C2F3560240F4000042F400023C
:10024000A0FB022000047F39140400D0401C50EAB7
:10025000124001D44000491EC2B20C0604EBD0107B
:10026000401C4008802A02D003E0002010BD20F08E
:100270000100002900DA0020184310BD30B480EAE4
:10028000010202F0004530F0004221F0004013D09E
:1002900090B1C30DD40DC2F31601C0F31600E41AD9
:1002A00041F4000140F400027D34914201D3641C0A
:1002B00000E04900002C02DA30BC002070474FF407
:1002C00000000023914201D3891A034340084FEAFA
:1002D0004101F7D151B1914202D14FF0004105E007
:1002E00002D24FF0010101E06FF0010103EBC450B5
:1002F000284430BC00F019B896230022114600F0C3
:100300001DB820F00040C10DC0F3160040F40000FD
:100310007F2901DA00207047962903DCC1F196019C
:10032000C84070479639884070470029A8BF704779
:10033000401C490008BF20F00100704710B4B0FA1B
:1003400080FC00FA0CF050EA010404BF10BC7047B6
:1003500049B1CCF1200421FA04F411FA0CF118BFD0
:10036000012121430843A3EB0C01CB1D4FEA00619F
:100370004FEA102042BF002010BC704700EBC35072
:1003800010440029A4BF10BC7047401C490008BF9E
:1003900020F0010010BC7047064C074D06E0E068F5
:1003A00040F0010394E8070098471034AC42F6D3BC
:1003B000FFF7C2FE94140008B414000830B50346D9
:1003C00000200C4C2488C4F30E040B4D28552846FD
:1003D000407898420BD12846C078884205D12846FB
:1003E0000079904201D1012030BD0020FCE70020BF
:1003F000FAE7000048000020E4B5002000BFFEE757
:1004000021B1026842F00102026004E002684FF686
:10041000FE731A400260704710B50022026847F66A
:10042000F0739A430C6A8B6823430C6923434C692D
:1004300023438C692343CC6923434C6A23438C6A4E
:1004400023431A430260CB6843600B6883604B68A8
:10045000C36010BD00B58BB00121084600F06CF9F7
:100460001048009010480190102002900020049045
:100470008020059000200690079008904FF480504F
:10048000099000200A9069460848FFF7C5FF002040
:1004900006494439886401210448FFF7B1FF0BB0D5
:1004A00000BD000004380140640000204400024008
:1004B0007047000001B54FF47A710098484308492D
:1004C00008604FF0E020006940F001004FF0E021AB
:1004D000086100BF024800680028FBD108BD000089
:1004E000100000202DE9F0410C46002100250026D7
:1004F00000BF5FE0012707FA01F504EA0506AE42F6
:1005000057D108291CD207684FEA81084FF00F0C19
:100510000CFA08FC27EA0C07076007684FEA810C11
:1005200002FA0CFC47EA0C07076007684FF0020C60
:100530000CEB810C03FA0CFC47EA0C07076023E084
:100540004768A1F1080C4FEA8C084FF00F0C0CFA29
:1005500008FC27EA0C0747604768A1F1080C4FEA3E
:100560008C0C02FA0CFC47EA0C074760D0F804C078
:10057000A1F108074FF0020808EB870703FA07F715
:100580004CEA070CC0F804C0022B08D1D0F80CC00C
:1005900001278F404CEA070CC0F80CC009E0022B81
:1005A00007D1D0F80CC01F1F8F400CEA070CC0F811
:1005B0000CC0491C10299DD3BDE8F08100BFFEE7A7
:1005C00010B50948806940F014000749886102238A
:1005D000002219030548FFF785FF022300220121AD
:1005E0000348FFF77FFF10BD0010024000100140DC
:1005F0000008014010B50D48806940F018000B4913
:1006000088610023032201210948FFF76BFF0023C3
:10061000032218210748FFF765FF012006490860FB
:100620000649C1F890010649086010BD001002405B
:10063000000C014000100140808121420000224254
:100640008C01224200BFFEE77047000070B5002118
:1006500000230F22C47804B3154C246804F4E0642A
:10066000C4F5E064210AC1F10403CA40447804FAE5
:1006700003F184781440214309010E4C0678A155FA
:10068000047804F01F050124AC4005786D11AD001D
:1006900005F1E025C5F8004109E0047804F01F05E4
:1006A0000124AC40044D0678761145F8264070BD13
:1006B0000CED00E000E400E080E100E02DE9F8430B
:1006C00005460E4617461C464FF00008052C13D26F
:1006D000DFE804F00306090C0F004FF4E0680CE0BB
:1006E0004FF4C06809E04FF4A06806E04FF480685A
:1006F00003E04FF4407800E000BF00BF404600F048
:100700000FF88DF800708DF801508DF8026001200F
:100710008DF803006846FFF799FFBDE8F8830000F5
:1007200002490143024A1160704700000000FA05C7
:100730000CED00E07047000029B1064A52690243FF
:10074000044B5A6104E0034A52698243014B5A61E7
:100750007047000000100240704710B500F002F82A
:1007600010BD00000CB500200190009033480068D7
:1007700040F480303149086000BF3048006800F420
:10078000003000900198401C0190009818B9019821
:10079000B0F5A06FF1D12948006800F4003010B125
:1007A0000120009001E0002000900098012843D132
:1007B0002348006840F0100021490860084600689E
:1007C00020F0030008600846006840F0020008605E
:1007D0001A48406819494860084640684860084619
:1007E000406840F4806048600846406820F47C100F
:1007F00048600846406840F4E810486008460068D1
:1008000040F08070086000BF0C48006800F0007085
:100810000028F9D00948406820F0030007494860E3
:100820000846406840F00200486000BF0348406846
:1008300000F00C000828F9D10CBD000000100240A7
:100840000020024010B500F0DBF910BD30B51A48A9
:1008500000681A4AB0FBF2F1B1F1807F01D30120A8
:100860001DE021F07F40401E4FF0E0225061501704
:100870000F22002807DA13071D0E114B00F00F049A
:10088000241F1D5503E013071C0E0E4B1C5400BF04
:1008900000204FF0E022906107201061002008B195
:1008A00000BFFEE74FF0E020006920F001004FF0AC
:1008B000E021086130BD00004C00002040420F00E4
:1008C00018ED00E000E400E010B51348006840F0C7
:1008D00001001149086008464068104908400E4967
:1008E0004860084600680E4908400B490860084601
:1008F000006820F4802008600846406820F4FE006C
:1009000048604FF41F008860FFF727FF4FF000603A
:100910000449086010BD0000001002400000FFF80C
:10092000FFFFF6FE08ED00E010B51448008800F067
:10093000010080B11248008840F40040104908804E
:100940000E48008820F001000C49088000210B4867
:10095000103800F041F90A48008800F4004060B106
:1009600007480088C0F30E040020064908550649D0
:10097000064800F003FB00F005FD10BD1004004028
:1009800048000020E4B50020640400200038014045
:1009900010B52148008800F0010000283BD01F4816
:1009A0000078401C1D4908701D480078401C1C49F7
:1009B00008701A480078052817DB002017490870CE
:1009C000202000F019FD17480078012809D11648A9
:1009D000006808B9012000E0002013498031086058
:1009E00003E000201049803108600D4800781E287F
:1009F0000BDB00200A4908700C490860642100F0F4
:100A00000AFD01200A49C1F880010348008820F04E
:100A100001000149088010BD1008004008000020B6
:100A2000090000202D0000200C012242808121427B
:100A300000802142002202881D4B98420ED01D4B9F
:100A400098420BD0B0F1804F08D01B4B984205D094
:100A50001A4B984202D01A4B984204D14FF68F732A
:100A60001A404B881A43174B984207D0164B9842AE
:100A700004D04FF6FF431A40CB881A4302808B887C
:100A800083850B8803850A4B98420BD0094B98420B
:100A900008D00E4B984205D00D4B984202D00D4B1A
:100AA000984201D10B7A03860123838270470000AC
:100AB000002C0140003401400004004000080040C8
:100AC000000C0040001000400014004000400140B5
:100AD0000044014000480140FEB504460D4616465C
:100AE0001F46B4F1804F08D03748844205D03748BC
:100AF000844202D0364884424ED1B4F1804F10D1A6
:100B00003448C06940F001003249C861A08940F012
:100B10000100A08102231C2239463046FFF7CEFD9A
:100B20003AE02948844210D12A48C06940F00200C6
:100B30002849C861A08940F00100A08102231D223C
:100B400039463046FFF7BAFD26E02048844210D1EE
:100B50002048C06940F004001E49C861A08940F0E7
:100B60000100A08102231E2239463046FFF7A6FD70
:100B700012E0174884420FD11648C06940F00800BF
:100B80001449C861A08940F00100A08102233222EB
:100B900039463046FFF792FD05EBC500C004000C56
:100BA000ADF8000040F2E730ADF804000020ADF8E9
:100BB0000200ADF8060069462046FFF73BFF20889B
:100BC00040F001002080FEBD00040040000800400D
:100BD000000C00400010024041B1828942F0010245
:100BE0008281028842F00102028007E0828922F0BD
:100BF00001028281028822F0010202807047000017
:100C00000448006820B103480068401E014908609C
:100C1000704700001000002000200949098801F0F9
:100C2000200161B10649091D0988C8B20449091D9E
:100C30000880091F098821F02001014A11807047AE
:100C4000003801402DE9FC5F0746884615461E46E0
:100C50004FEA0810FFF750FB8246384907FB01F0C6
:100C6000FFF74AFB83465146FFF708FB814648469B
:100C7000FFF747FB84B22046FFF73EFB4946009052
:100C8000FFF7C7FA83464FF08341FFF7C5FA824664
:100C9000FFF737FB80B201904FF6FF7000EA0414B3
:100CA0000198204484B22648806944F20401084334
:100CB000234988610223032249152248FFF712FCC9
:100CC0000223002259021F48FFF70CFC1C48C06891
:100CD00040F480401A49C8600846C06820F480404B
:100CE000C86019480480001D008842F20C010843C6
:100CF0001549091D088035B92EB90846008820F02D
:100D0000200008800DE00223252231462846FFF707
:100D1000D5FC0D48001D008840F020000A49091D3F
:100D20000880FFF797FB08480C30008840F08000EF
:100D300005490C310880BDE8FC9F000040420F00CF
:100D400000100240000801400838014010B500249E
:100D50001A48008800F0200010B31848008820F0DE
:100D6000200016490880081D0088C4B21448048079
:100D700014480088B0F5007F13DA0020124908807B
:100D80001048008820B901210F482438FFF724FFBC
:100D90000C4801880088401C0A4A10800B484454C3
:100DA0000AE00848008840F4004006490880002115
:100DB00005482438FFF710FF10BD00000044004034
:100DC000043801404800002024040040E4B500201D
:100DD0002DE9FC5F0746884615461E464FEA081077
:100DE000FFF78AFA8246374907FB01F0FFF784FADA
:100DF00083465146FFF742FA81464846FFF781FA9B
:100E000084B22046FFF778FA49460090FFF701FACE
:100E100083464FF08341FFF7FFF98246FFF771FAEF
:100E200080B201904FF6FF7000EA0414019820444C
:100E300084B22548806940F004002349886108464F
:100E4000806940F0010088610846C06940F40030C4
:100E5000C8610223032204211C48FFF743FB02233D
:100E6000002208211948FFF73DFB1748006940F4AC
:100E70000030154908610846006920F40030086117
:100E800013480480001D008842F20C0108431049F9
:100E9000091D088035B92EB90846008820F02000C9
:100EA00008800DE00223262231462846FFF706FC83
:100EB0000748001D008840F020000549091D0880F2
:100EC000BDE8FC9F40420F000010024000080140B6
:100ED000084400402449098801F02001002941D03C
:100EE0002149091D0988C8B21F49098821F020013C
:100EF0001D4A11801D49097839B9012805D1012100
:100F00001A4A11701A49087025E018490978012910
:100F100007D1032805D10221144A117014494870E1
:100F200019E012490978022915D112490978114AA4
:100F30001278521C0F4B1A70891C0D4A50541946D6
:100F40000978172907D10021084A11701A46117033
:100F50000121094A117008490978012902D10021AB
:100F6000054A117070470000004800400A00002048
:100F7000E4B200200C0000200B0000200EE000BFB7
:100F8000028802F08002002AFAD011F8012B828038
:100F900000BF028802F04002002AFAD00A78002A34
:100FA000EDD1704700BFFEE7014A024900F013B8D7
:100FB000F90F00086000002002E008C8121F08C1F5
:100FC000002AFAD170477047002001E001C1121FCA
:100FD000002AFBD170472DE9F04116460F46044622
:100FE000002503E03946B047641C6D1C20780028BA
:100FF000F8D12846BDE8F08100BF054A128802F00A
:101000004002002AF9D0C2B2014B1B1D1A80704762
:1010100000380140FFF71AFC01231A464FF4E13172
:101020004820FFF70FFE022301224FF4164124202F
:10103000FFF7CEFE022300220A213748FFF74CFDBE
:1010400000213548FFF7C8FD0223012264213348FF
:10105000FFF742FD00213148FFF7BEFDFFF7CAFA56
:10106000FFF7AEFA0521012000F03AF901212B48E3
:10107000FFF7B2FD00F09CF829A0FFF795FF2DA027
:10108000FFF792FF46E01420FFF714FA2E4800F015
:10109000C7F82E4800F0D8F82D48007800F001007D
:1010A000C8B100202B4908602B480068401C2A4921
:1010B00008600846006896280DDB0020086027A01D
:1010C000FFF772FF00F092F90120224908604FF407
:1010D0007A70FFF7EFF92B48008800F40050C8B190
:1010E00000202949086029480068401C27490860F9
:1010F0000846006896280DDB0020086024A0FFF752
:1011000053FF00F06DF901201F4908604FF47A7019
:10111000FFF7D0F9B7E700000004004000080040E6
:1011200074686520666972737420746573740D0A3F
:1011300000000000746865207365636F6E6420743E
:101140006573740D0A0000000008014000100140A2
:10115000260000208081214200000020736B696E10
:101160006E696E6720746865207A696762656520BC
:101170006A6F696E20746865206E6574776F726B34
:10118000200D0A002A0000209001224204000020C5
:10119000726573657420746F206C65617665207468
:1011A0006865206E6574776F726B200D0A00000011
:1011B00000B509494FF42062C868002100F026F804
:1011C00005494FF420428868002100F01FF80120F3
:1011D0000149087400BD00003000002000220021F9
:1011E00006E00948C06830F8110000B1521C491CE3
:1011F000B1F5A06FF5D3642050434FF4A063B0FB6A
:10120000F3F0C0B2704700003000002030B5034654
:1012100001E003F8011B141EA2F10102F9D130BD57
:1012200001468A684FF6FF735A4090B2044A12880A
:1012300042400240034B1A80014A10807047000070
:10124000260000202400002001468A684FF6FF7324
:101250005A4090B2044A128842400240034B1A801E
:10126000014A1080704700002A000020280000205A
:1012700000BF0549098801F040010029F9D0024961
:10128000091D088070470000004400402DE9F04728
:1012900080460C4615461E46089F4FF00009404602
:1012A00000F0AAF80CE03220FFF704F93246294694
:1012B0002046FFF783F818B100200849088003E0B2
:1012C000781E80B2071EEED100BF4FF001090FB9A2
:1012D0004FF000094846BDE8F087000048000020B4
:1012E00013B582B0044634B9002000F0C1F81420D0
:1012F000FFF7E0F81EE0012C1CD1012000F0B8F847
:101300001420FFF7D7F80BE06420FFF7D3F81C4850
:10131000006808B9012000E0002019498031086008
:101320000A20FF231A46222100902020FFF7AEFF5B
:101330000028E9D112E03220FFF7BCF8BDF80C001C
:1013400000F080F83220FFF7B5F80D48006808B9C2
:10135000012000E000200A4980310860142000903C
:101360009DF80C309DF80D2032213020FFF78EFFC4
:101370000028E0D0012002498031086004B010BD8F
:101380000C0122421348008800F40040E8B11248E2
:101390000078FA2819D010480078FC2815D10E489A
:1013A000407822280FD10C48C078FF2807D10A487E
:1013B0000079FF2803D101200849087002E00020CD
:1013C0000649087000E000BF00BF00200149088006
:1013D0007047000048000020E4B500202D000020E8
:1013E00010B5F02000F008F8012010BD10B5F42071
:1013F00000F002F8012010BD10B50446FC20FFF7F4
:1014000037FF2046FFF734FF0020FFF731FFF520BC
:10141000FFF72EFF10BD13B50C46FA20FFF728FF8B
:101420009DF80100FFF724FF9DF80000FFF720FF63
:101430000120FFF71DFF2046FFF71AFFF520FFF7F9
:1014400017FF1CBD01B5FC20FFF712FF3120FFF78D
:101450000FFF0220FFF70CFF9DF80100FFF708FFC8
:101460009DF80000FFF704FFF520FFF701FF08BD1E
:1014700010B50446FC20FFF7FBFE1120FFF7F8FE35
:101480000120FFF7F5FE2046FFF7F2FEF520FFF7FB
:10149000EFFE10BDB414000800000020640000003E
:1014A000B80F0008181500086400002084BB000075
:1014B000C80F00080000000000000000000000004D
:1014C0000000000000000000EEDEBE7EEDDDBD7D10
:1014D000EBDBBB7BE7D7B777000000000000000024
:1014E00001000000B1110008DD11000864060020B1
:1014F00064A60020000000000000000000000000C2
:1015000000A24A04000000000000000001020304E1
:081510000607080900000000B5
:0400000508000131BD
:00000001FF
