Component: ARM Compiler 5.06 update 1 (build 61) Tool: armlink [4d35a8]

==============================================================================

Section Cross References

    main.o(i.main) refers to system.o(i.SysTick_Init) for SysTick_Init
    main.o(i.main) refers to usart.o(i.USART1_Init) for USART1_Init
    main.o(i.main) refers to usart2.o(i.USART2_Init) for USART2_Init
    main.o(i.main) refers to timer.o(i.TIMx_Config) for TIMx_Config
    main.o(i.main) refers to timer.o(i.TIMx_Status) for TIMx_Status
    main.o(i.main) refers to led.o(i.LED_Init) for LED_Init
    main.o(i.main) refers to key.o(i.KEY_Init) for KEY_Init
    main.o(i.main) refers to zigbee.o(i.zigbee_Init) for zigbee_Init
    main.o(i.main) refers to malloc.o(i.mem_init) for mem_init
    main.o(i.main) refers to printf1.o(i.__0printf$1) for __2printf
    main.o(i.main) refers to system.o(i.Delay_ms) for Delay_ms
    main.o(i.main) refers to key.o(i.smart_Key_Scan) for smart_Key_Scan
    main.o(i.main) refers to zigbee.o(i.zigbee_Open_Gateway) for zigbee_Open_Gateway
    main.o(i.main) refers to zigbee.o(i.zigbee_Restart) for zigbee_Restart
    main.o(i.main) refers to key.o(.data) for Key_Cont
    main.o(i.main) refers to main.o(.data) for cont_key0
    stm32f10x_it.o(i.SysTick_Handler) refers to system.o(i.TimingDelay_Decrement) for TimingDelay_Decrement
    stm32f10x_it.o(i.TIM3_IRQHandler) refers to timer.o(i.TIMx_Status) for TIMx_Status
==============================================================================

Removing Unused input sections from the image.

    Removing stm32f10x_it.o(i.USART4_IRQHandler), (2 bytes).
    Removing stm32f10x_it.o(i.USART5_IRQHandler), (2 bytes).
    Removing stm32f10x_it.o(i.USART6_IRQHandler), (2 bytes).
    Removing system.o(i.Delay_us), (40 bytes).
    Removing system.o(i.MYRCC_DeInit), (104 bytes).
    Removing system.o(i.MY_NVIC_SetVectorTable), (20 bytes).
    Removing system.o(i.Stm32_Clock_Init), (144 bytes).
    Removing system.o(i.Sys_NVICControl), (14 bytes).
    Removing system.o(i.Sys_Soft_Reset), (16 bytes).
    Removing key.o(i.KEYS_Init), (52 bytes).
    Removing key.o(i.KEYS_Scan), (232 bytes).
    Removing key.o(i.KEY_Scan), (128 bytes).
    Removing zigbee.o(i.ACK_Check_Byet), (52 bytes).
    Removing zigbee.o(i.zigbee_Reset), (12 bytes).
    Removing zigbee.o(i.zigbee_Send_Data_u8), (46 bytes).
    Removing control_1.o(i.BSP_Init), (2 bytes).
    Removing control_1.o(i.Update_data), (2 bytes).
    Removing control_1.o(.bss), (40 bytes).
==============================================================================

Image Symbol Table

    Local Symbols

    Symbol Name                              Value     Ov Type        Size  Object(Section)

    ../clib/microlib/division.c              0x00000000   Number         0  uidiv.o ABSOLUTE
    ../clib/microlib/division.c              0x00000000   Number         0  uldiv.o ABSOLUTE
    ../clib/microlib/init/entry.s            0x00000000   Number         0  entry2.o ABSOLUTE
    ../clib/microlib/init/entry.s            0x00000000   Number         0  entry7a.o ABSOLUTE
    ../clib/microlib/init/entry.s            0x00000000   Number         0  entry11b.o ABSOLUTE
    ../clib/microlib/init/entry.s            0x00000000   Number         0  entry7b.o ABSOLUTE
    ../clib/microlib/init/entry.s            0x00000000   Number         0  entry11a.o ABSOLUTE
    ../clib/microlib/init/entry.s            0x00000000   Number         0  entry10b.o ABSOLUTE
    ../clib/microlib/init/entry.s            0x00000000   Number         0  entry10a.o ABSOLUTE
    ../clib/microlib/init/entry.s            0x00000000   Number         0  entry9b.o ABSOLUTE
    ../clib/microlib/init/entry.s            0x00000000   Number         0  entry9a.o ABSOLUTE
    ../clib/microlib/init/entry.s            0x00000000   Number         0  entry.o ABSOLUTE
    ../clib/microlib/init/entry.s            0x00000000   Number         0  entry8b.o ABSOLUTE
    ../clib/microlib/init/entry.s            0x00000000   Number         0  entry8a.o ABSOLUTE
    ../clib/microlib/init/entry.s            0x00000000   Number         0  entry5.o ABSOLUTE
    ../clib/microlib/longlong.c              0x00000000   Number         0  llsshr.o ABSOLUTE
    ../clib/microlib/longlong.c              0x00000000   Number         0  llshl.o ABSOLUTE
    ../clib/microlib/longlong.c              0x00000000   Number         0  llushr.o ABSOLUTE
    ../clib/microlib/printf/printf.c         0x00000000   Number         0  printfa.o ABSOLUTE
    ../clib/microlib/printf/printf.c         0x00000000   Number         0  printf3.o ABSOLUTE
    ../clib/microlib/printf/printf.c         0x00000000   Number         0  printf2.o ABSOLUTE
    ../clib/microlib/printf/printf.c         0x00000000   Number         0  printf1.o ABSOLUTE
    ../clib/microlib/printf/printf.c         0x00000000   Number         0  printf0.o ABSOLUTE
    ../clib/microlib/printf/printf.c         0x00000000   Number         0  printfb.o ABSOLUTE
    ../clib/microlib/printf/printf.c         0x00000000   Number         0  printf8.o ABSOLUTE
    ../clib/microlib/printf/printf.c         0x00000000   Number         0  printf7.o ABSOLUTE
    ../clib/microlib/printf/printf.c         0x00000000   Number         0  printf6.o ABSOLUTE
    ../clib/microlib/printf/printf.c         0x00000000   Number         0  printf5.o ABSOLUTE
    ../clib/microlib/printf/printf.c         0x00000000   Number         0  printf4.o ABSOLUTE
    ../clib/microlib/printf/stubs.s          0x00000000   Number         0  stubs.o ABSOLUTE
    ../clib/microlib/stdio/streams.c         0x00000000   Number         0  stdout.o ABSOLUTE
    ../clib/microlib/string/memcmp.c         0x00000000   Number         0  memcmp.o ABSOLUTE
    ../clib/microlib/string/memcpy.c         0x00000000   Number         0  memcpya.o ABSOLUTE
    ../clib/microlib/string/memcpy.c         0x00000000   Number         0  memcpyb.o ABSOLUTE
    ../clib/microlib/string/strlen.c         0x00000000   Number         0  strlen.o ABSOLUTE
    ../clib/microlib/string/strncmp.c        0x00000000   Number         0  strncmp.o ABSOLUTE
    ../clib/microlib/string/strstr.c         0x00000000   Number         0  strstr.o ABSOLUTE
    ../clib/microlib/stubs.s                 0x00000000   Number         0  iusefp.o ABSOLUTE
    ../fplib/microlib/fpadd.c                0x00000000   Number         0  fadd.o ABSOLUTE
    ../fplib/microlib/fpadd.c                0x00000000   Number         0  dadd.o ABSOLUTE
    ../fplib/microlib/fpdiv.c                0x00000000   Number         0  ddiv.o ABSOLUTE
    ../fplib/microlib/fpdiv.c                0x00000000   Number         0  fdiv.o ABSOLUTE
    ../fplib/microlib/fpepilogue.c           0x00000000   Number         0  depilogue.o ABSOLUTE
    ../fplib/microlib/fpepilogue.c           0x00000000   Number         0  fepilogue.o ABSOLUTE
    ../fplib/microlib/fpfix.c                0x00000000   Number         0  ffixui.o ABSOLUTE
    ../fplib/microlib/fpfix.c                0x00000000   Number         0  dfixul.o ABSOLUTE
    ../fplib/microlib/fpflt.c                0x00000000   Number         0  ffltui.o ABSOLUTE
    ../fplib/microlib/fpmul.c                0x00000000   Number         0  fmul.o ABSOLUTE
    ../fplib/microlib/fpmul.c                0x00000000   Number         0  dmul.o ABSOLUTE
    ..\APP\Control\control.c                 0x00000000   Number         0  control_1.o ABSOLUTE
    ..\APP\Control\my_mqtt.c                 0x00000000   Number         0  my_mqtt.o ABSOLUTE
    ..\APP\main.c                            0x00000000   Number         0  main.o ABSOLUTE
    ..\APP\stm32f10x_it.c                    0x00000000   Number         0  stm32f10x_it.o ABSOLUTE
    ..\APP\system\system.c                   0x00000000   Number         0  system.o ABSOLUTE
    ..\BSP\Keys\key.c                        0x00000000   Number         0  key.o ABSOLUTE
    ..\BSP\LED\LED.c                         0x00000000   Number         0  led.o ABSOLUTE
    ..\BSP\zigbee\zigbee.c                   0x00000000   Number         0  zigbee.o ABSOLUTE
    ..\MQTT\MQTTConnectClient.c              0x00000000   Number         0  mqttconnectclient.o ABSOLUTE
    ..\MQTT\MQTTConnectServer.c              0x00000000   Number         0  mqttconnectserver.o ABSOLUTE
    ..\MQTT\MQTTPacket.c                     0x00000000   Number         0  mqttpacket.o ABSOLUTE
    ..\MQTT\MQTTSerializePublish.c           0x00000000   Number         0  mqttserializepublish.o ABSOLUTE
    ..\MQTT\MQTTSubscribeClient.c            0x00000000   Number         0  mqttsubscribeclient.o ABSOLUTE
    ..\STM32Fx\CMSIS\core_cm3.c              0x00000000   Number         0  core_cm3.o ABSOLUTE
    ..\STM32Fx\FWLIB\src\misc.c              0x00000000   Number         0  misc.o ABSOLUTE
    ..\STM32Fx\FWLIB\src\stm32f10x_dma.c     0x00000000   Number         0  stm32f10x_dma.o ABSOLUTE
    ..\STM32Fx\FWLIB\src\stm32f10x_gpio.c    0x00000000   Number         0  stm32f10x_gpio.o ABSOLUTE
    ..\STM32Fx\FWLIB\src\stm32f10x_iwdg.c    0x00000000   Number         0  stm32f10x_iwdg.o ABSOLUTE
    ..\STM32Fx\FWLIB\src\stm32f10x_rcc.c     0x00000000   Number         0  stm32f10x_rcc.o ABSOLUTE
    ..\STM32Fx\FWLIB\src\stm32f10x_tim.c     0x00000000   Number         0  stm32f10x_tim.o ABSOLUTE
    ..\STM32Fx\MCU_Drivers\DMA\DMA.C         0x00000000   Number         0  dma.o ABSOLUTE
    ..\STM32Fx\MCU_Drivers\GPIO\GPIO.c       0x00000000   Number         0  gpio.o ABSOLUTE
    ..\STM32Fx\MCU_Drivers\IWDG\iwdg.c       0x00000000   Number         0  iwdg.o ABSOLUTE
    ..\STM32Fx\MCU_Drivers\MALLOC\malloc.c   0x00000000   Number         0  malloc.o ABSOLUTE
    ..\STM32Fx\MCU_Drivers\TIMER\TIMER.c     0x00000000   Number         0  timer.o ABSOLUTE
    ..\STM32Fx\MCU_Drivers\USART2\usart2.c   0x00000000   Number         0  usart2.o ABSOLUTE
    ..\STM32Fx\MCU_Drivers\USART3\usart3.c   0x00000000   Number         0  usart3.o ABSOLUTE
    ..\STM32Fx\MCU_Drivers\USART\usart.c     0x00000000   Number         0  usart.o ABSOLUTE
    ..\STM32Fx\START\startup_stm32f10x_hd.s  0x00000000   Number         0  startup_stm32f10x_hd.o ABSOLUTE
    ..\STM32Fx\START\system_stm32f10x.c      0x00000000   Number         0  system_stm32f10x.o ABSOLUTE
    ..\\STM32Fx\\CMSIS\\core_cm3.c           0x00000000   Number         0  core_cm3.o ABSOLUTE
    cdrcmple.s                               0x00000000   Number         0  cdrcmple.o ABSOLUTE
    dc.s                                     0x00000000   Number         0  dc.o ABSOLUTE
    handlers.s                               0x00000000   Number         0  handlers.o ABSOLUTE
    init.s                                   0x00000000   Number         0  init.o ABSOLUTE
    RESET                                    0x08000000   Section      304  startup_stm32f10x_hd.o(RESET)
    .ARM.Collect$$$$00000000                 0x08000130   Section        0  entry.o(.ARM.Collect$$$$00000000)
    .ARM.Collect$$$$00000001                 0x08000130   Section        4  entry2.o(.ARM.Collect$$$$00000001)
    .ARM.Collect$$$$00000004                 0x08000134   Section        4  entry5.o(.ARM.Collect$$$$00000004)
    .ARM.Collect$$$$00000008                 0x08000138   Section        0  entry7b.o(.ARM.Collect$$$$00000008)
    .ARM.Collect$$$$0000000A                 0x08000138   Section        0  entry8b.o(.ARM.Collect$$$$0000000A)
    .ARM.Collect$$$$0000000B                 0x08000138   Section        8  entry9a.o(.ARM.Collect$$$$0000000B)
    .ARM.Collect$$$$0000000D                 0x08000140   Section        0  entry10a.o(.ARM.Collect$$$$0000000D)
    .ARM.Collect$$$$0000000F                 0x08000140   Section        0  entry11a.o(.ARM.Collect$$$$0000000F)
    .ARM.Collect$$$$00002712                 0x08000140   Section        4  entry2.o(.ARM.Collect$$$$00002712)
    __lit__00000000                          0x08000140   Data           4  entry2.o(.ARM.Collect$$$$00002712)
    .text                                    0x08000144   Section       36  startup_stm32f10x_hd.o(.text)
    .text                                    0x08000168   Section        0  fadd.o(.text)
    .text                                    0x08000218   Section        0  fmul.o(.text)
    .text                                    0x0800027c   Section        0  fdiv.o(.text)
    .text                                    0x080002f8   Section        0  ffltui.o(.text)
    .text                                    0x08000302   Section        0  ffixui.o(.text)
    .text                                    0x0800032a   Section        0  uidiv.o(.text)
    .text                                    0x08000356   Section        0  iusefp.o(.text)
    .text                                    0x08000356   Section        0  fepilogue.o(.text)
    .text                                    0x080003c4   Section       36  init.o(.text)
    i.ACK_Check_Word                         0x080003e8   Section        0  zigbee.o(i.ACK_Check_Word)
    ACK_Check_Word                           0x080003e9   Thumb Code    54  zigbee.o(i.ACK_Check_Word)
    i.BusFault_Handler                       0x08000428   Section        0  stm32f10x_it.o(i.BusFault_Handler)
    i.DMA_Cmd                                0x0800042c   Section        0  stm32f10x_dma.o(i.DMA_Cmd)
    i.DMA_Init                               0x08000444   Section        0  stm32f10x_dma.o(i.DMA_Init)
    i.DMA_USART1SendInit                     0x08000480   Section        0  usart.o(i.DMA_USART1SendInit)
    i.DebugMon_Handler                       0x080004dc   Section        0  stm32f10x_it.o(i.DebugMon_Handler)
    i.Delay_ms                               0x080004e0   Section        0  system.o(i.Delay_ms)
    i.GPIO_Set                               0x08000510   Section        0  gpio.o(i.GPIO_Set)
    i.HardFault_Handler                      0x080005e8   Section        0  stm32f10x_it.o(i.HardFault_Handler)
    i.KEY_Init                               0x080005ec   Section        0  key.o(i.KEY_Init)
    i.LED_Init                               0x0800062c   Section        0  led.o(i.LED_Init)
    i.MemManage_Handler                      0x08000674   Section        0  stm32f10x_it.o(i.MemManage_Handler)
    i.NMI_Handler                            0x08000678   Section        0  stm32f10x_it.o(i.NMI_Handler)
    i.NVIC_Init                              0x0800067c   Section        0  misc.o(i.NVIC_Init)
    i.NVIC_PriodConfig                       0x080006ec   Section        0  system.o(i.NVIC_PriodConfig)
    i.NVIC_PriorityGroupConfig               0x08000750   Section        0  misc.o(i.NVIC_PriorityGroupConfig)
    i.PendSV_Handler                         0x08000764   Section        0  stm32f10x_it.o(i.PendSV_Handler)
    i.RCC_AHBPeriphClockCmd                  0x08000768   Section        0  stm32f10x_rcc.o(i.RCC_AHBPeriphClockCmd)
    i.SVC_Handler                            0x08000788   Section        0  stm32f10x_it.o(i.SVC_Handler)
    i.SetSysClock                            0x0800078a   Section        0  system_stm32f10x.o(i.SetSysClock)
    SetSysClock                              0x0800078b   Thumb Code     8  system_stm32f10x.o(i.SetSysClock)
    i.SetSysClockTo72                        0x08000794   Section        0  system_stm32f10x.o(i.SetSysClockTo72)
    SetSysClockTo72                          0x08000795   Thumb Code   214  system_stm32f10x.o(i.SetSysClockTo72)
    i.SysTick_Handler                        0x08000874   Section        0  stm32f10x_it.o(i.SysTick_Handler)
    i.SysTick_Init                           0x0800087c   Section        0  system.o(i.SysTick_Init)
    i.SystemInit                             0x080008f8   Section        0  system_stm32f10x.o(i.SystemInit)
    i.TIM3_IRQHandler                        0x08000958   Section        0  stm32f10x_it.o(i.TIM3_IRQHandler)
    i.TIM4_IRQHandler                        0x080009d8   Section        0  stm32f10x_it.o(i.TIM4_IRQHandler)
    i.TIM_TimeBaseInit                       0x08000a38   Section        0  stm32f10x_tim.o(i.TIM_TimeBaseInit)
    i.TIMx_Config                            0x08000adc   Section        0  timer.o(i.TIMx_Config)
    i.TIMx_Status                            0x08000bdc   Section        0  timer.o(i.TIMx_Status)
    i.TimingDelay_Decrement                  0x08000c04   Section        0  system.o(i.TimingDelay_Decrement)
    i.USART1_IRQHandler                      0x08000c1c   Section        0  stm32f10x_it.o(i.USART1_IRQHandler)
    i.USART1_Init                            0x08000c48   Section        0  usart.o(i.USART1_Init)
    i.USART2_IRQHandler                      0x08000d50   Section        0  stm32f10x_it.o(i.USART2_IRQHandler)
    i.USART2_Init                            0x08000dd4   Section        0  usart2.o(i.USART2_Init)
    i.USART3_IRQHandler                      0x08000ed8   Section        0  stm32f10x_it.o(i.USART3_IRQHandler)
    i.USART_StrSend                          0x08000f80   Section        0  usart.o(i.USART_StrSend)
    i.UsageFault_Handler                     0x08000fa8   Section        0  stm32f10x_it.o(i.UsageFault_Handler)
    i.__0printf$1                            0x08000fac   Section        0  printf1.o(i.__0printf$1)
    i.__scatterload_copy                     0x08000fcc   Section       14  handlers.o(i.__scatterload_copy)
    i.__scatterload_null                     0x08000fda   Section        2  handlers.o(i.__scatterload_null)
    i.__scatterload_zeroinit                 0x08000fdc   Section       14  handlers.o(i.__scatterload_zeroinit)
    i._printf_core                           0x08000fec   Section        0  printf1.o(i._printf_core)
    _printf_core                             0x08000fed   Thumb Code   336  printf1.o(i._printf_core)
    i.fputc                                  0x08001140   Section        0  usart.o(i.fputc)
    i.main                                   0x0800115c   Section        0  main.o(i.main)
    i.mem_init                               0x080012d4   Section        0  malloc.o(i.mem_init)
    i.mem_perused                            0x08001300   Section        0  malloc.o(i.mem_perused)
    i.mymemset                               0x08001330   Section        0  malloc.o(i.mymemset)
    i.smart_Key_Scan                         0x08001344   Section        0  key.o(i.smart_Key_Scan)
    i.usart2_buf                             0x0800136c   Section        0  zigbee.o(i.usart2_buf)
    usart2_buf                               0x0800136d   Thumb Code    22  zigbee.o(i.usart2_buf)
    i.zigbee_Check_Cmd                       0x08001388   Section        0  zigbee.o(i.zigbee_Check_Cmd)
    i.zigbee_Close_Gateway                   0x080013dc   Section        0  zigbee.o(i.zigbee_Close_Gateway)
    i.zigbee_Init                            0x080013f4   Section        0  zigbee.o(i.zigbee_Init)
    i.zigbee_Open_Gateway                    0x08001498   Section        0  zigbee.o(i.zigbee_Open_Gateway)
    i.zigbee_Received                        0x080014b0   Section        0  zigbee.o(i.zigbee_Received)
    i.zigbee_Restart                         0x08001540   Section        0  zigbee.o(i.zigbee_Restart)
    i.zigbee_Send_Cmd                        0x0800154c   Section        0  zigbee.o(i.zigbee_Send_Cmd)
    i.zigbee_Set_Addr                        0x0800156a   Section        0  zigbee.o(i.zigbee_Set_Addr)
    i.zigbee_Set_Mode                        0x08001596   Section        0  zigbee.o(i.zigbee_Set_Mode)
    .data                                    0x20000000   Section        8  main.o(.data)
    cont_key0                                0x20000000   Data           4  main.o(.data)
    cont_key1                                0x20000004   Data           4  main.o(.data)
    .data                                    0x20000008   Section        7  stm32f10x_it.o(.data)
    count                                    0x20000008   Data           4  stm32f10x_it.o(.data)
    Rx_state                                 0x2000000c   Data           1  stm32f10x_it.o(.data)
    state                                    0x2000000d   Data           1  stm32f10x_it.o(.data)
    buf_index                                0x2000000e   Data           1  stm32f10x_it.o(.data)
    .data                                    0x20000010   Section        4  system.o(.data)
    TimingDelay                              0x20000010   Data           4  system.o(.data)
    .data                                    0x20000014   Section       21  key.o(.data)
    key_flag                                 0x20000028   Data           1  key.o(.data)
    .data                                    0x20000029   Section        1  zigbee.o(.data)
    .data                                    0x2000002c   Section       20  malloc.o(.data)
    .data                                    0x20000040   Section        6  usart2.o(.data)
    .data                                    0x20000048   Section       20  system_stm32f10x.o(.data)
    .data                                    0x2000005c   Section        4  stdout.o(.data)
    .bss                                     0x20000060   Section     1536  usart.o(.bss)
    .bss                                     0x20000660   Section    43520  malloc.o(.bss)
    .bss                                     0x2000b060   Section      768  usart3.o(.bss)
    .bss                                     0x2000b360   Section     1152  usart2.o(.bss)
    STACK                                    0x2000b7e0   Section     1024  startup_stm32f10x_hd.o(STACK)

    Global Symbols

    Symbol Name                              Value     Ov Type        Size  Object(Section)

    BuildAttributes$$THM_ISAv4$P$D$K$B$S$PE$A:L22UL41UL21$X:L11$S22US41US21$IEEE1$IW$USESV6$~STKCKD$USESV7$~SHL$OTIME$ROPI$EBA8$MICROLIB$REQ8$PRES8$EABIv2 0x00000000   Number         0  anon$$obj.o ABSOLUTE
    __ARM_use_no_argv                        0x00000000   Number         0  main.o ABSOLUTE
    _printf_a                                0x00000000   Number         0  stubs.o ABSOLUTE
    _printf_c                                0x00000000   Number         0  stubs.o ABSOLUTE
    _printf_charcount                        0x00000000   Number         0  stubs.o ABSOLUTE
    _printf_d                                0x00000000   Number         0  stubs.o ABSOLUTE
    _printf_e                                0x00000000   Number         0  stubs.o ABSOLUTE
    _printf_f                                0x00000000   Number         0  stubs.o ABSOLUTE
    _printf_flags                            0x00000000   Number         0  stubs.o ABSOLUTE
    _printf_fp_dec                           0x00000000   Number         0  stubs.o ABSOLUTE
    _printf_fp_hex                           0x00000000   Number         0  stubs.o ABSOLUTE
    _printf_g                                0x00000000   Number         0  stubs.o ABSOLUTE
    _printf_i                                0x00000000   Number         0  stubs.o ABSOLUTE
    _printf_int_dec                          0x00000000   Number         0  stubs.o ABSOLUTE
    _printf_l                                0x00000000   Number         0  stubs.o ABSOLUTE
    _printf_lc                               0x00000000   Number         0  stubs.o ABSOLUTE
    _printf_ll                               0x00000000   Number         0  stubs.o ABSOLUTE
    _printf_lld                              0x00000000   Number         0  stubs.o ABSOLUTE
    _printf_lli                              0x00000000   Number         0  stubs.o ABSOLUTE
    _printf_llo                              0x00000000   Number         0  stubs.o ABSOLUTE
    _printf_llu                              0x00000000   Number         0  stubs.o ABSOLUTE
    _printf_llx                              0x00000000   Number         0  stubs.o ABSOLUTE
    _printf_longlong_dec                     0x00000000   Number         0  stubs.o ABSOLUTE
    _printf_longlong_hex                     0x00000000   Number         0  stubs.o ABSOLUTE
    _printf_longlong_oct                     0x00000000   Number         0  stubs.o ABSOLUTE
    _printf_ls                               0x00000000   Number         0  stubs.o ABSOLUTE
    _printf_mbtowc                           0x00000000   Number         0  stubs.o ABSOLUTE
    _printf_n                                0x00000000   Number         0  stubs.o ABSOLUTE
    _printf_o                                0x00000000   Number         0  stubs.o ABSOLUTE
    _printf_p                                0x00000000   Number         0  stubs.o ABSOLUTE
    _printf_percent                          0x00000000   Number         0  stubs.o ABSOLUTE
    _printf_pre_padding                      0x00000000   Number         0  stubs.o ABSOLUTE
    _printf_return_value                     0x00000000   Number         0  stubs.o ABSOLUTE
    _printf_s                                0x00000000   Number         0  stubs.o ABSOLUTE
    _printf_sizespec                         0x00000000   Number         0  stubs.o ABSOLUTE
    _printf_str                              0x00000000   Number         0  stubs.o ABSOLUTE
    _printf_truncate_signed                  0x00000000   Number         0  stubs.o ABSOLUTE
    _printf_truncate_unsigned                0x00000000   Number         0  stubs.o ABSOLUTE
    _printf_u                                0x00000000   Number         0  stubs.o ABSOLUTE
    _printf_wc                               0x00000000   Number         0  stubs.o ABSOLUTE
    _printf_wctomb                           0x00000000   Number         0  stubs.o ABSOLUTE
    _printf_widthprec                        0x00000000   Number         0  stubs.o ABSOLUTE
    _printf_x                                0x00000000   Number         0  stubs.o ABSOLUTE
    __cpp_initialize__aeabi_                  - Undefined Weak Reference
    __cxa_finalize                            - Undefined Weak Reference
    __decompress                              - Undefined Weak Reference
    _clock_init                               - Undefined Weak Reference
    _microlib_exit                            - Undefined Weak Reference
    __Vectors_Size                           0x00000130   Number         0  startup_stm32f10x_hd.o ABSOLUTE
    __Vectors                                0x08000000   Data           4  startup_stm32f10x_hd.o(RESET)
    __Vectors_End                            0x08000130   Data           0  startup_stm32f10x_hd.o(RESET)
    __main                                   0x08000131   Thumb Code     0  entry.o(.ARM.Collect$$$$00000000)
    _main_stk                                0x08000131   Thumb Code     0  entry2.o(.ARM.Collect$$$$00000001)
    _main_scatterload                        0x08000135   Thumb Code     0  entry5.o(.ARM.Collect$$$$00000004)
    __main_after_scatterload                 0x08000139   Thumb Code     0  entry5.o(.ARM.Collect$$$$00000004)
    _main_clock                              0x08000139   Thumb Code     0  entry7b.o(.ARM.Collect$$$$00000008)
    _main_cpp_init                           0x08000139   Thumb Code     0  entry8b.o(.ARM.Collect$$$$0000000A)
    _main_init                               0x08000139   Thumb Code     0  entry9a.o(.ARM.Collect$$$$0000000B)
    __rt_final_cpp                           0x08000141   Thumb Code     0  entry10a.o(.ARM.Collect$$$$0000000D)
    __rt_final_exit                          0x08000141   Thumb Code     0  entry11a.o(.ARM.Collect$$$$0000000F)
    Reset_Handler                            0x08000145   Thumb Code     8  startup_stm32f10x_hd.o(.text)
    ADC1_2_IRQHandler                        0x0800015f   Thumb Code     0  startup_stm32f10x_hd.o(.text)
    ADC3_IRQHandler                          0x0800015f   Thumb Code     0  startup_stm32f10x_hd.o(.text)
    CAN1_RX1_IRQHandler                      0x0800015f   Thumb Code     0  startup_stm32f10x_hd.o(.text)
    CAN1_SCE_IRQHandler                      0x0800015f   Thumb Code     0  startup_stm32f10x_hd.o(.text)
    DMA1_Channel1_IRQHandler                 0x0800015f   Thumb Code     0  startup_stm32f10x_hd.o(.text)
    DMA1_Channel2_IRQHandler                 0x0800015f   Thumb Code     0  startup_stm32f10x_hd.o(.text)
    DMA1_Channel3_IRQHandler                 0x0800015f   Thumb Code     0  startup_stm32f10x_hd.o(.text)
    DMA1_Channel4_IRQHandler                 0x0800015f   Thumb Code     0  startup_stm32f10x_hd.o(.text)
    DMA1_Channel5_IRQHandler                 0x0800015f   Thumb Code     0  startup_stm32f10x_hd.o(.text)
    DMA1_Channel6_IRQHandler                 0x0800015f   Thumb Code     0  startup_stm32f10x_hd.o(.text)
    DMA1_Channel7_IRQHandler                 0x0800015f   Thumb Code     0  startup_stm32f10x_hd.o(.text)
    DMA2_Channel1_IRQHandler                 0x0800015f   Thumb Code     0  startup_stm32f10x_hd.o(.text)
    DMA2_Channel2_IRQHandler                 0x0800015f   Thumb Code     0  startup_stm32f10x_hd.o(.text)
    DMA2_Channel3_IRQHandler                 0x0800015f   Thumb Code     0  startup_stm32f10x_hd.o(.text)
    DMA2_Channel4_5_IRQHandler               0x0800015f   Thumb Code     0  startup_stm32f10x_hd.o(.text)
    EXTI0_IRQHandler                         0x0800015f   Thumb Code     0  startup_stm32f10x_hd.o(.text)
    EXTI15_10_IRQHandler                     0x0800015f   Thumb Code     0  startup_stm32f10x_hd.o(.text)
    EXTI1_IRQHandler                         0x0800015f   Thumb Code     0  startup_stm32f10x_hd.o(.text)
    EXTI2_IRQHandler                         0x0800015f   Thumb Code     0  startup_stm32f10x_hd.o(.text)
    EXTI3_IRQHandler                         0x0800015f   Thumb Code     0  startup_stm32f10x_hd.o(.text)
    EXTI4_IRQHandler                         0x0800015f   Thumb Code     0  startup_stm32f10x_hd.o(.text)
    EXTI9_5_IRQHandler                       0x0800015f   Thumb Code     0  startup_stm32f10x_hd.o(.text)
    FLASH_IRQHandler                         0x0800015f   Thumb Code     0  startup_stm32f10x_hd.o(.text)
    FSMC_IRQHandler                          0x0800015f   Thumb Code     0  startup_stm32f10x_hd.o(.text)
    I2C1_ER_IRQHandler                       0x0800015f   Thumb Code     0  startup_stm32f10x_hd.o(.text)
    I2C1_EV_IRQHandler                       0x0800015f   Thumb Code     0  startup_stm32f10x_hd.o(.text)
    I2C2_ER_IRQHandler                       0x0800015f   Thumb Code     0  startup_stm32f10x_hd.o(.text)
    I2C2_EV_IRQHandler                       0x0800015f   Thumb Code     0  startup_stm32f10x_hd.o(.text)
    PVD_IRQHandler                           0x0800015f   Thumb Code     0  startup_stm32f10x_hd.o(.text)
    RCC_IRQHandler                           0x0800015f   Thumb Code     0  startup_stm32f10x_hd.o(.text)
    RTCAlarm_IRQHandler                      0x0800015f   Thumb Code     0  startup_stm32f10x_hd.o(.text)
    RTC_IRQHandler                           0x0800015f   Thumb Code     0  startup_stm32f10x_hd.o(.text)
    SDIO_IRQHandler                          0x0800015f   Thumb Code     0  startup_stm32f10x_hd.o(.text)
    SPI1_IRQHandler                          0x0800015f   Thumb Code     0  startup_stm32f10x_hd.o(.text)
    SPI2_IRQHandler                          0x0800015f   Thumb Code     0  startup_stm32f10x_hd.o(.text)
    SPI3_IRQHandler                          0x0800015f   Thumb Code     0  startup_stm32f10x_hd.o(.text)
    TAMPER_IRQHandler                        0x0800015f   Thumb Code     0  startup_stm32f10x_hd.o(.text)
    TIM1_BRK_IRQHandler                      0x0800015f   Thumb Code     0  startup_stm32f10x_hd.o(.text)
    TIM1_CC_IRQHandler                       0x0800015f   Thumb Code     0  startup_stm32f10x_hd.o(.text)
    TIM1_TRG_COM_IRQHandler                  0x0800015f   Thumb Code     0  startup_stm32f10x_hd.o(.text)
    TIM1_UP_IRQHandler                       0x0800015f   Thumb Code     0  startup_stm32f10x_hd.o(.text)
    TIM2_IRQHandler                          0x0800015f   Thumb Code     0  startup_stm32f10x_hd.o(.text)
    TIM5_IRQHandler                          0x0800015f   Thumb Code     0  startup_stm32f10x_hd.o(.text)
    TIM6_IRQHandler                          0x0800015f   Thumb Code     0  startup_stm32f10x_hd.o(.text)
    TIM7_IRQHandler                          0x0800015f   Thumb Code     0  startup_stm32f10x_hd.o(.text)
    TIM8_BRK_IRQHandler                      0x0800015f   Thumb Code     0  startup_stm32f10x_hd.o(.text)
    TIM8_CC_IRQHandler                       0x0800015f   Thumb Code     0  startup_stm32f10x_hd.o(.text)
    TIM8_TRG_COM_IRQHandler                  0x0800015f   Thumb Code     0  startup_stm32f10x_hd.o(.text)
    TIM8_UP_IRQHandler                       0x0800015f   Thumb Code     0  startup_stm32f10x_hd.o(.text)
    UART4_IRQHandler                         0x0800015f   Thumb Code     0  startup_stm32f10x_hd.o(.text)
    UART5_IRQHandler                         0x0800015f   Thumb Code     0  startup_stm32f10x_hd.o(.text)
    USBWakeUp_IRQHandler                     0x0800015f   Thumb Code     0  startup_stm32f10x_hd.o(.text)
    USB_HP_CAN1_TX_IRQHandler                0x0800015f   Thumb Code     0  startup_stm32f10x_hd.o(.text)
    USB_LP_CAN1_RX0_IRQHandler               0x0800015f   Thumb Code     0  startup_stm32f10x_hd.o(.text)
    WWDG_IRQHandler                          0x0800015f   Thumb Code     0  startup_stm32f10x_hd.o(.text)
    __aeabi_fadd                             0x08000169   Thumb Code   164  fadd.o(.text)
    __aeabi_fsub                             0x0800020d   Thumb Code     6  fadd.o(.text)
    __aeabi_frsub                            0x08000213   Thumb Code     6  fadd.o(.text)
    __aeabi_fmul                             0x08000219   Thumb Code   100  fmul.o(.text)
    __aeabi_fdiv                             0x0800027d   Thumb Code   124  fdiv.o(.text)
    __aeabi_ui2f                             0x080002f9   Thumb Code    10  ffltui.o(.text)
    __aeabi_f2uiz                            0x08000303   Thumb Code    40  ffixui.o(.text)
    __aeabi_uidiv                            0x0800032b   Thumb Code     0  uidiv.o(.text)
    __aeabi_uidivmod                         0x0800032b   Thumb Code    44  uidiv.o(.text)
    __I$use$fp                               0x08000357   Thumb Code     0  iusefp.o(.text)
    _float_round                             0x08000357   Thumb Code    18  fepilogue.o(.text)
    _float_epilogue                          0x08000369   Thumb Code    92  fepilogue.o(.text)
    __scatterload                            0x080003c5   Thumb Code    28  init.o(.text)
    __scatterload_rt2                        0x080003c5   Thumb Code     0  init.o(.text)
    BusFault_Handler                         0x08000429   Thumb Code     4  stm32f10x_it.o(i.BusFault_Handler)
    DMA_Cmd                                  0x0800042d   Thumb Code    24  stm32f10x_dma.o(i.DMA_Cmd)
    DMA_Init                                 0x08000445   Thumb Code    60  stm32f10x_dma.o(i.DMA_Init)
    DMA_USART1SendInit                       0x08000481   Thumb Code    78  usart.o(i.DMA_USART1SendInit)
    DebugMon_Handler                         0x080004dd   Thumb Code     2  stm32f10x_it.o(i.DebugMon_Handler)
    Delay_ms                                 0x080004e1   Thumb Code    42  system.o(i.Delay_ms)
    GPIO_Set                                 0x08000511   Thumb Code   216  gpio.o(i.GPIO_Set)
    HardFault_Handler                        0x080005e9   Thumb Code     4  stm32f10x_it.o(i.HardFault_Handler)
    KEY_Init                                 0x080005ed   Thumb Code    52  key.o(i.KEY_Init)
    LED_Init                                 0x0800062d   Thumb Code    52  led.o(i.LED_Init)
    MemManage_Handler                        0x08000675   Thumb Code     4  stm32f10x_it.o(i.MemManage_Handler)
    NMI_Handler                              0x08000679   Thumb Code     2  stm32f10x_it.o(i.NMI_Handler)
    NVIC_Init                                0x0800067d   Thumb Code   100  misc.o(i.NVIC_Init)
    NVIC_PriodConfig                         0x080006ed   Thumb Code    98  system.o(i.NVIC_PriodConfig)
    NVIC_PriorityGroupConfig                 0x08000751   Thumb Code    10  misc.o(i.NVIC_PriorityGroupConfig)
    PendSV_Handler                           0x08000765   Thumb Code     2  stm32f10x_it.o(i.PendSV_Handler)
    RCC_AHBPeriphClockCmd                    0x08000769   Thumb Code    26  stm32f10x_rcc.o(i.RCC_AHBPeriphClockCmd)
    SVC_Handler                              0x08000789   Thumb Code     2  stm32f10x_it.o(i.SVC_Handler)
    SysTick_Handler                          0x08000875   Thumb Code     8  stm32f10x_it.o(i.SysTick_Handler)
    SysTick_Init                             0x0800087d   Thumb Code   106  system.o(i.SysTick_Init)
    SystemInit                               0x080008f9   Thumb Code    78  system_stm32f10x.o(i.SystemInit)
    TIM3_IRQHandler                          0x08000959   Thumb Code    98  stm32f10x_it.o(i.TIM3_IRQHandler)
    TIM4_IRQHandler                          0x080009d9   Thumb Code    82  stm32f10x_it.o(i.TIM4_IRQHandler)
    TIM_TimeBaseInit                         0x08000a39   Thumb Code   122  stm32f10x_tim.o(i.TIM_TimeBaseInit)
    TIMx_Config                              0x08000add   Thumb Code   240  timer.o(i.TIMx_Config)
    TIMx_Status                              0x08000bdd   Thumb Code    38  timer.o(i.TIMx_Status)
    TimingDelay_Decrement                    0x08000c05   Thumb Code    18  system.o(i.TimingDelay_Decrement)
    USART1_IRQHandler                        0x08000c1d   Thumb Code    40  stm32f10x_it.o(i.USART1_IRQHandler)
    USART1_Init                              0x08000c49   Thumb Code   246  usart.o(i.USART1_Init)
    USART2_IRQHandler                        0x08000d51   Thumb Code   110  stm32f10x_it.o(i.USART2_IRQHandler)
    USART2_Init                              0x08000dd5   Thumb Code   244  usart2.o(i.USART2_Init)
    USART3_IRQHandler                        0x08000ed9   Thumb Code   146  stm32f10x_it.o(i.USART3_IRQHandler)
    USART_StrSend                            0x08000f81   Thumb Code    40  usart.o(i.USART_StrSend)
    UsageFault_Handler                       0x08000fa9   Thumb Code     4  stm32f10x_it.o(i.UsageFault_Handler)
    __0printf$1                              0x08000fad   Thumb Code    22  printf1.o(i.__0printf$1)
    __1printf$1                              0x08000fad   Thumb Code     0  printf1.o(i.__0printf$1)
    __2printf                                0x08000fad   Thumb Code     0  printf1.o(i.__0printf$1)
    __scatterload_copy                       0x08000fcd   Thumb Code    14  handlers.o(i.__scatterload_copy)
    __scatterload_null                       0x08000fdb   Thumb Code     2  handlers.o(i.__scatterload_null)
    __scatterload_zeroinit                   0x08000fdd   Thumb Code    14  handlers.o(i.__scatterload_zeroinit)
    fputc                                    0x08001141   Thumb Code    24  usart.o(i.fputc)
    main                                     0x0800115d   Thumb Code   236  main.o(i.main)
    mem_init                                 0x080012d5   Thumb Code    38  malloc.o(i.mem_init)
    mem_perused                              0x08001301   Thumb Code    42  malloc.o(i.mem_perused)
    mymemset                                 0x08001331   Thumb Code    20  malloc.o(i.mymemset)
    smart_Key_Scan                           0x08001345   Thumb Code    30  key.o(i.smart_Key_Scan)
    zigbee_Check_Cmd                         0x08001389   Thumb Code    78  zigbee.o(i.zigbee_Check_Cmd)
    zigbee_Close_Gateway                     0x080013dd   Thumb Code    20  zigbee.o(i.zigbee_Close_Gateway)
    zigbee_Init                              0x080013f5   Thumb Code   160  zigbee.o(i.zigbee_Init)
    zigbee_Open_Gateway                      0x08001499   Thumb Code    20  zigbee.o(i.zigbee_Open_Gateway)
    zigbee_Received                          0x080014b1   Thumb Code   108  zigbee.o(i.zigbee_Received)
    zigbee_Restart                           0x08001541   Thumb Code    12  zigbee.o(i.zigbee_Restart)
    zigbee_Send_Cmd                          0x0800154d   Thumb Code    30  zigbee.o(i.zigbee_Send_Cmd)
    zigbee_Set_Addr                          0x0800156b   Thumb Code    44  zigbee.o(i.zigbee_Set_Addr)
    zigbee_Set_Mode                          0x08001597   Thumb Code    36  zigbee.o(i.zigbee_Set_Mode)
    Region$$Table$$Base                      0x080015bc   Number         0  anon$$obj.o(Region$$Table)
    Region$$Table$$Limit                     0x080015dc   Number         0  anon$$obj.o(Region$$Table)
    key_code                                 0x20000014   Data          16  key.o(.data)
    Key_Trg                                  0x20000024   Data           2  key.o(.data)
    Key_Cont                                 0x20000026   Data           2  key.o(.data)
    zigbee_net_flag                          0x20000029   Data           1  zigbee.o(.data)
    mallco_dev                               0x2000002c   Data          20  malloc.o(.data)
    USART2_TX_Count                          0x20000040   Data           1  usart2.o(.data)
    USART2_RX_Count                          0x20000041   Data           1  usart2.o(.data)
    USART2_RX_flag                           0x20000042   Data           1  usart2.o(.data)
    USART2_RX_STA                            0x20000044   Data           2  usart2.o(.data)
    SystemCoreClock                          0x20000048   Data           4  system_stm32f10x.o(.data)
    AHBPrescTable                            0x2000004c   Data          16  system_stm32f10x.o(.data)
    __stdout                                 0x2000005c   Data           4  stdout.o(.data)
    DMA_USART1_SendBuf                       0x20000060   Data         512  usart.o(.bss)
    USART1_TX_BUF                            0x20000260   Data         512  usart.o(.bss)
    USART1_RX_BUF                            0x20000460   Data         512  usart.o(.bss)
    membase                                  0x20000660   Data       40960  malloc.o(.bss)
    memmapbase                               0x2000a660   Data        2560  malloc.o(.bss)
    DMA_USART3_SendBuf                       0x2000b060   Data         512  usart3.o(.bss)
    USART3_TX_BUF                            0x2000b260   Data         128  usart3.o(.bss)
    USART3_RX_BUF                            0x2000b2e0   Data         128  usart3.o(.bss)
    DMA_USART2_SendBuf                       0x2000b360   Data         512  usart2.o(.bss)
    USART2_TX_BUF                            0x2000b560   Data         128  usart2.o(.bss)
    USART2_RX_BUF                            0x2000b5e0   Data         512  usart2.o(.bss)
    __initial_sp                             0x2000bbe0   Data           0  startup_stm32f10x_hd.o(STACK)



==============================================================================

Memory Map of the image

  Image Entry point : 0x08000131

  Load Region LR_IROM1 (Base: 0x08000000, Size: 0x0000163c, Max: 0x00040000, ABSOLUTE)

    Execution Region ER_IROM1 (Base: 0x08000000, Size: 0x000015dc, Max: 0x00040000, ABSOLUTE)

    Base Addr    Size         Type   Attr      Idx    E Section Name        Object

    0x08000000   0x00000130   Data   RO         2093    RESET               startup_stm32f10x_hd.o
    0x08000130   0x00000000   Code   RO         2132  * .ARM.Collect$$$$00000000  mc_w.l(entry.o)
    0x08000130   0x00000004   Code   RO         2418    .ARM.Collect$$$$00000001  mc_w.l(entry2.o)
    0x08000134   0x00000004   Code   RO         2421    .ARM.Collect$$$$00000004  mc_w.l(entry5.o)
    0x08000138   0x00000000   Code   RO         2423    .ARM.Collect$$$$00000008  mc_w.l(entry7b.o)
    0x08000138   0x00000000   Code   RO         2425    .ARM.Collect$$$$0000000A  mc_w.l(entry8b.o)
    0x08000138   0x00000008   Code   RO         2426    .ARM.Collect$$$$0000000B  mc_w.l(entry9a.o)
    0x08000140   0x00000000   Code   RO         2428    .ARM.Collect$$$$0000000D  mc_w.l(entry10a.o)
    0x08000140   0x00000000   Code   RO         2430    .ARM.Collect$$$$0000000F  mc_w.l(entry11a.o)
    0x08000140   0x00000004   Code   RO         2419    .ARM.Collect$$$$00002712  mc_w.l(entry2.o)
    0x08000144   0x00000024   Code   RO         2094    .text               startup_stm32f10x_hd.o
    0x08000168   0x000000b0   Code   RO         2408    .text               mf_w.l(fadd.o)
    0x08000218   0x00000064   Code   RO         2410    .text               mf_w.l(fmul.o)
    0x0800027c   0x0000007c   Code   RO         2412    .text               mf_w.l(fdiv.o)
    0x080002f8   0x0000000a   Code   RO         2414    .text               mf_w.l(ffltui.o)
    0x08000302   0x00000028   Code   RO         2416    .text               mf_w.l(ffixui.o)
    0x0800032a   0x0000002c   Code   RO         2433    .text               mc_w.l(uidiv.o)
    0x08000356   0x00000000   Code   RO         2437    .text               mc_w.l(iusefp.o)
    0x08000356   0x0000006e   Code   RO         2438    .text               mf_w.l(fepilogue.o)
    0x080003c4   0x00000024   Code   RO         2450    .text               mc_w.l(init.o)
    0x080003e8   0x00000040   Code   RO          403    i.ACK_Check_Word    zigbee.o
    0x08000428   0x00000004   Code   RO          154    i.BusFault_Handler  stm32f10x_it.o
    0x0800042c   0x00000018   Code   RO         1431    i.DMA_Cmd           stm32f10x_dma.o
    0x08000444   0x0000003c   Code   RO         1437    i.DMA_Init          stm32f10x_dma.o
    0x08000480   0x0000005c   Code   RO          569    i.DMA_USART1SendInit  usart.o
    0x080004dc   0x00000002   Code   RO          155    i.DebugMon_Handler  stm32f10x_it.o
    0x080004de   0x00000002   PAD
    0x080004e0   0x00000030   Code   RO          273    i.Delay_ms          system.o
    0x08000510   0x000000d8   Code   RO          557    i.GPIO_Set          gpio.o
    0x080005e8   0x00000004   Code   RO          156    i.HardFault_Handler  stm32f10x_it.o
    0x080005ec   0x00000040   Code   RO          359    i.KEY_Init          key.o
    0x0800062c   0x00000048   Code   RO          345    i.LED_Init          led.o
    0x08000674   0x00000004   Code   RO          157    i.MemManage_Handler  stm32f10x_it.o
    0x08000678   0x00000002   Code   RO          158    i.NMI_Handler       stm32f10x_it.o
    0x0800067a   0x00000002   PAD
    0x0800067c   0x00000070   Code   RO         1079    i.NVIC_Init         misc.o
    0x080006ec   0x00000062   Code   RO          277    i.NVIC_PriodConfig  system.o
    0x0800074e   0x00000002   PAD
    0x08000750   0x00000014   Code   RO         1080    i.NVIC_PriorityGroupConfig  misc.o
    0x08000764   0x00000002   Code   RO          159    i.PendSV_Handler    stm32f10x_it.o
    0x08000766   0x00000002   PAD
    0x08000768   0x00000020   Code   RO         1116    i.RCC_AHBPeriphClockCmd  stm32f10x_rcc.o
    0x08000788   0x00000002   Code   RO          160    i.SVC_Handler       stm32f10x_it.o
    0x0800078a   0x00000008   Code   RO         2098    i.SetSysClock       system_stm32f10x.o
    0x08000792   0x00000002   PAD
    0x08000794   0x000000e0   Code   RO         2099    i.SetSysClockTo72   system_stm32f10x.o
    0x08000874   0x00000008   Code   RO          161    i.SysTick_Handler   stm32f10x_it.o
    0x0800087c   0x0000007c   Code   RO          279    i.SysTick_Init      system.o
    0x080008f8   0x00000060   Code   RO         2101    i.SystemInit        system_stm32f10x.o
    0x08000958   0x00000080   Code   RO          162    i.TIM3_IRQHandler   stm32f10x_it.o
    0x080009d8   0x00000060   Code   RO          163    i.TIM4_IRQHandler   stm32f10x_it.o
    0x08000a38   0x000000a4   Code   RO         1588    i.TIM_TimeBaseInit  stm32f10x_tim.o
    0x08000adc   0x00000100   Code   RO          661    i.TIMx_Config       timer.o
    0x08000bdc   0x00000026   Code   RO          662    i.TIMx_Status       timer.o
    0x08000c02   0x00000002   PAD
    0x08000c04   0x00000018   Code   RO          282    i.TimingDelay_Decrement  system.o
    0x08000c1c   0x0000002c   Code   RO          164    i.USART1_IRQHandler  stm32f10x_it.o
    0x08000c48   0x00000108   Code   RO          572    i.USART1_Init       usart.o
    0x08000d50   0x00000084   Code   RO          165    i.USART2_IRQHandler  stm32f10x_it.o
    0x08000dd4   0x00000104   Code   RO          794    i.USART2_Init       usart2.o
    0x08000ed8   0x000000a8   Code   RO          166    i.USART3_IRQHandler  stm32f10x_it.o
    0x08000f80   0x00000028   Code   RO          574    i.USART_StrSend     usart.o
    0x08000fa8   0x00000004   Code   RO          170    i.UsageFault_Handler  stm32f10x_it.o
    0x08000fac   0x00000020   Code   RO         2192    i.__0printf$1       mc_w.l(printf1.o)
    0x08000fcc   0x0000000e   Code   RO         2462    i.__scatterload_copy  mc_w.l(handlers.o)
    0x08000fda   0x00000002   Code   RO         2463    i.__scatterload_null  mc_w.l(handlers.o)
    0x08000fdc   0x0000000e   Code   RO         2464    i.__scatterload_zeroinit  mc_w.l(handlers.o)
    0x08000fea   0x00000002   PAD
    0x08000fec   0x00000154   Code   RO         2199    i._printf_core      mc_w.l(printf1.o)
    0x08001140   0x0000001c   Code   RO          576    i.fputc             usart.o
    0x0800115c   0x00000178   Code   RO            1    i.main              main.o
    0x080012d4   0x0000002c   Code   RO          680    i.mem_init          malloc.o
    0x08001300   0x00000030   Code   RO          682    i.mem_perused       malloc.o
    0x08001330   0x00000014   Code   RO          686    i.mymemset          malloc.o
    0x08001344   0x00000028   Code   RO          361    i.smart_Key_Scan    key.o
    0x0800136c   0x0000001c   Code   RO          404    i.usart2_buf        zigbee.o
    0x08001388   0x00000054   Code   RO          405    i.zigbee_Check_Cmd  zigbee.o
    0x080013dc   0x00000018   Code   RO          406    i.zigbee_Close_Gateway  zigbee.o
    0x080013f4   0x000000a4   Code   RO          407    i.zigbee_Init       zigbee.o
    0x08001498   0x00000018   Code   RO          408    i.zigbee_Open_Gateway  zigbee.o
    0x080014b0   0x00000090   Code   RO          409    i.zigbee_Received   zigbee.o
    0x08001540   0x0000000c   Code   RO          411    i.zigbee_Restart    zigbee.o
    0x0800154c   0x0000001e   Code   RO          412    i.zigbee_Send_Cmd   zigbee.o
    0x0800156a   0x0000002c   Code   RO          414    i.zigbee_Set_Addr   zigbee.o
    0x08001596   0x00000024   Code   RO          415    i.zigbee_Set_Mode   zigbee.o
    0x080015ba   0x00000002   PAD
    0x080015bc   0x00000020   Data   RO         2460    Region$$Table       anon$$obj.o


    Execution Region RW_IRAM1 (Base: 0x20000000, Size: 0x0000bbe0, Max: 0x0000c000, ABSOLUTE)

    Base Addr    Size         Type   Attr      Idx    E Section Name        Object

    0x20000000   0x00000008   Data   RW            2    .data               main.o
    0x20000008   0x00000007   Data   RW          171    .data               stm32f10x_it.o
    0x2000000f   0x00000001   PAD
    0x20000010   0x00000004   Data   RW          283    .data               system.o
    0x20000014   0x00000015   Data   RW          362    .data               key.o
    0x20000029   0x00000001   Data   RW          416    .data               zigbee.o
    0x2000002a   0x00000002   PAD
    0x2000002c   0x00000014   Data   RW          690    .data               malloc.o
    0x20000040   0x00000006   Data   RW          797    .data               usart2.o
    0x20000046   0x00000002   PAD
    0x20000048   0x00000014   Data   RW         2102    .data               system_stm32f10x.o
    0x2000005c   0x00000004   Data   RW         2432    .data               mc_w.l(stdout.o)
    0x20000060   0x00000600   Zero   RW          577    .bss                usart.o
    0x20000660   0x0000aa00   Zero   RW          688    .bss                malloc.o
    0x2000b060   0x00000300   Zero   RW          750    .bss                usart3.o
    0x2000b360   0x00000480   Zero   RW          796    .bss                usart2.o
    0x2000b7e0   0x00000400   Zero   RW         2091    STACK               startup_stm32f10x_hd.o


==============================================================================

Image component sizes


      Code (inc. data)   RO Data    RW Data    ZI Data      Debug   Object Name

         0          0          0          0          0         32   core_cm3.o
       216          0          0          0          0       1063   gpio.o
       104         22          0         21          0       2179   key.o
        72         20          0          0          0        435   led.o
       376        140          0          8          0     240099   main.o
       112         12          0         20      43520       2942   malloc.o
       132         22          0          0          0       1483   misc.o
        36          8        304          0       1024        800   startup_stm32f10x_hd.o
        84          0          0          0          0       2721   stm32f10x_dma.o
       600         92          0          7          0       6434   stm32f10x_it.o
        32          6          0          0          0        552   stm32f10x_rcc.o
       164         42          0          0          0       1175   stm32f10x_tim.o
       294         36          0          4          0      17936   system.o
       328         28          0         20          0       2189   system_stm32f10x.o
       294         16          0          0          0       1720   timer.o
       424         36          0          0       1536       5473   usart.o
       260         16          0          6       1152       2120   usart2.o
         0          0          0          0        768       1218   usart3.o
       654         70          0          1          0       6217   zigbee.o

    ----------------------------------------------------------------------
      4196        566        336         92      48000     296788   Object Totals
         0          0         32          0          0          0   (incl. Generated)
        14          0          0          5          0          0   (incl. Padding)

    ----------------------------------------------------------------------

      Code (inc. data)   RO Data    RW Data    ZI Data      Debug   Library Member Name

         0          0          0          0          0          0   entry.o
         0          0          0          0          0          0   entry10a.o
         0          0          0          0          0          0   entry11a.o
         8          4          0          0          0          0   entry2.o
         4          0          0          0          0          0   entry5.o
         0          0          0          0          0          0   entry7b.o
         0          0          0          0          0          0   entry8b.o
         8          4          0          0          0          0   entry9a.o
        30          0          0          0          0          0   handlers.o
        36          8          0          0          0         68   init.o
         0          0          0          0          0          0   iusefp.o
       372         14          0          0          0        184   printf1.o
         0          0          0          4          0          0   stdout.o
        44          0          0          0          0         80   uidiv.o
       176          0          0          0          0        140   fadd.o
       124          0          0          0          0         88   fdiv.o
       110          0          0          0          0        168   fepilogue.o
        40          0          0          0          0         68   ffixui.o
        10          0          0          0          0         68   ffltui.o
       100          0          0          0          0         76   fmul.o

    ----------------------------------------------------------------------
      1064         30          0          4          0        940   Library Totals
         2          0          0          0          0          0   (incl. Padding)

    ----------------------------------------------------------------------

      Code (inc. data)   RO Data    RW Data    ZI Data      Debug   Library Name

       502         30          0          4          0        332   mc_w.l
       560          0          0          0          0        608   mf_w.l

    ----------------------------------------------------------------------
      1064         30          0          4          0        940   Library Totals

    ----------------------------------------------------------------------

==============================================================================


      Code (inc. data)   RO Data    RW Data    ZI Data      Debug   

      5260        596        336         96      48000     294968   Grand Totals
      5260        596        336         96      48000     294968   ELF Image Totals
      5260        596        336         96          0          0   ROM Totals

==============================================================================

    Total RO  Size (Code + RO Data)                 5596 (   5.46kB)
    Total RW  Size (RW Data + ZI Data)             48096 (  46.97kB)
    Total ROM Size (Code + RO Data + RW Data)       5692 (   5.56kB)

==============================================================================

