:020000040800F2
:10000000E0BB00204501000879060008E90500086A
:100010007506000829040008A90F00080000000068
:100020000000000000000000000000008907000838
:10003000DD040008000000006507000875080008DE
:100040005F0100085F0100085F0100085F01000810
:100050005F0100085F0100085F0100085F01000800
:100060005F0100085F0100085F0100085F010008F0
:100070005F0100085F0100085F0100085F010008E0
:100080005F0100085F0100085F0100085F010008D0
:100090005F0100085F0100085F0100085F010008C0
:1000A0005F0100085F0100085F0100085F010008B0
:1000B0005F01000859090008D90900085F0100081C
:1000C0005F0100085F0100085F0100085F01000890
:1000D0005F0100081D0C0008510D0008D90E000832
:1000E0005F0100085F0100085F0100085F01000870
:1000F0005F0100085F0100085F0100085F01000860
:100100005F0100085F0100085F0100085F0100084F
:100110005F0100085F0100085F0100085F0100083F
:100120005F0100085F0100085F0100085F0100082F
:10013000DFF80CD000F046F9004800475D110008D8
:10014000E0BB00200648804706480047FEE7FEE780
:10015000FEE7FEE7FEE7FEE7FEE7FEE7FEE7FEE777
:10016000F908000831010008F0B480EA0102D40F58
:100170004200B2EB410F02D20246084611464A0045
:1001800042D0C30DDDB2C1F3C752AD1A202D35DA0E
:10019000C1F3160141F4000204B15242C5F1200638
:1001A00002FA06F12A411044B3EBD05F23D0C4B168
:1001B000012DA0EBC35009DCF0BC4FF0004202EA75
:1001C000C352DBB200F5000000F0CEB8400000F1F1
:1001D000807000EBC350A0F1807040EAD1704900FC
:1001E00009E0490841EAC071A0EBC35000F50000E6
:1001F000400800EBC350F0BC00F0ADB861420122F2
:1002000002EB4101001BF6E7F0BC704781F00041B2
:10021000AAE780F00040A7E780EA010210B502F0EB
:100220000043400022D04A001FD0010E01EB1261B2
:10023000C0F35600C2F3560240F4000042F400023C
:10024000A0FB022000047F39140400D0401C50EAB7
:10025000124001D44000491EC2B20C0604EBD0107B
:10026000401C4008802A02D003E0002010BD20F08E
:100270000100002900DA0020184310BD30B480EAE4
:10028000010202F0004530F0004221F0004013D09E
:1002900090B1C30DD40DC2F31601C0F31600E41AD9
:1002A00041F4000140F400027D34914201D3641C0A
:1002B00000E04900002C02DA30BC002070474FF407
:1002C00000000023914201D3891A034340084FEAFA
:1002D0004101F7D151B1914202D14FF0004105E007
:1002E00002D24FF0010101E06FF0010103EBC450B5
:1002F000284430BC00F02FB896230022114600F0AD
:1003000033B820F00040C10DC0F3160040F40000E7
:100310007F2901DA00207047962903DCC1F196019C
:10032000C840704796398840704730B50B46014643
:1003300000202022012409E021FA02F59D4205D384
:1003400003FA02F5491B04FA02F52844151EA2F12E
:100350000102F1DC30BD0029A8BF7047401C4900F4
:1003600008BF20F00100704710B4B0FA80FC00FA1A
:100370000CF050EA010404BF10BC704749B1CCF145
:10038000200421FA04F411FA0CF118BF01212143D1
:100390000843A3EB0C01CB1D4FEA00614FEA10208C
:1003A00042BF002010BC704700EBC350104400292E
:1003B000A4BF10BC7047401C490008BF20F00100DA
:1003C00010BC7047064C074D06E0E06840F00103A2
:1003D00094E8070098471034AC42F6D3FFF7ACFE20
:1003E000BC150008DC15000830B5034600200C4C95
:1003F0002488C4F30E040B4D2855284640789842B3
:100400000BD12846C078884205D128460079904211
:1004100001D1012030BD0020FCE70020FAE70000F8
:1004200044000020E0B5002000BFFEE721B10268D3
:1004300042F00102026004E002684FF6FE731A40C7
:100440000260704710B50022026847F6F0739A43C5
:100450000C6A8B6823430C6923434C6923438C69E2
:100460002343CC6923434C6A23438C6A23431A43B6
:100470000260CB6843600B6883604B68C36010BD4B
:1004800000B58BB00121084600F06EF910480090CD
:1004900010480190102002900020049080200590C8
:1004A00000200690079008904FF48050099000209B
:1004B0000A9069460848FFF7C5FF002006494439FD
:1004C000886401210448FFF7B1FF0BB000BD0000B4
:1004D00004380140600000204400024070470000E2
:1004E00001B54FF47A7100984843084908604FF00D
:1004F000E020006940F001004FF0E021086100BFFA
:10050000024800680028FBD108BD00001000002050
:100510002DE9F0410C4600210025002600BF5FE0D8
:10052000012707FA01F504EA0506AE4257D108296A
:100530001CD207684FEA81084FF00F0C0CFA08FC38
:1005400027EA0C07076007684FEA810C02FA0CFCE7
:1005500047EA0C07076007684FF0020C0CEB810CB0
:1005600003FA0CFC47EA0C07076023E04768A1F197
:10057000080C4FEA8C084FF00F0C0CFA08FC27EA25
:100580000C0747604768A1F1080C4FEA8C0C02FA8F
:100590000CFC47EA0C074760D0F804C0A1F108073B
:1005A0004FF0020808EB870703FA07F74CEA070C3D
:1005B000C0F804C0022B08D1D0F80CC001278F402E
:1005C0004CEA070CC0F80CC009E0022B07D1D0F8A8
:1005D0000CC01F1F8F400CEA070CC0F80CC0491C50
:1005E00010299DD3BDE8F08100BFFEE710B50C488F
:1005F000806940F014000A498861022300221946EC
:100600000848FFF785FF0223002219030548FFF77A
:100610007FFF0323002201210348FFF779FF10BD6C
:1006200000100240001001400008014010B50C48C5
:10063000806940F024000A4988610023032289155B
:100640000848FFF765FF0023032204210648FFF74F
:100650005FFF0120054908600549C1F8880110BD08
:10066000001002400008014000140140A001214296
:100670000080224200BFFEE77047000070B50021F5
:1006800000230F22C47804B3154C246804F4E064FA
:10069000C4F5E064210AC1F10403CA40447804FAB5
:1006A00003F184781440214309010E4C0678A155CA
:1006B000047804F01F050124AC4005786D11AD00ED
:1006C00005F1E025C5F8004109E0047804F01F05B4
:1006D0000124AC40044D0678761145F8264070BDE3
:1006E0000CED00E000E400E080E100E02DE9F843DB
:1006F00005460E4617461C464FF00008052C13D23F
:10070000DFE804F00306090C0F004FF4E0680CE08A
:100710004FF4C06809E04FF4A06806E04FF4806829
:1007200003E04FF4407800E000BF00BF404600F017
:100730000FF88DF800708DF801508DF802600120DF
:100740008DF803006846FFF799FFBDE8F8830000C5
:1007500002490143024A1160704700000000FA0597
:100760000CED00E07047000029B1064A52690243CF
:10077000044B5A6104E0034A52698243014B5A61B7
:100780007047000000100240704710B500F002F8FA
:1007900010BD00000CB500200190009033480068A7
:1007A00040F480303149086000BF3048006800F4F0
:1007B000003000900198401C0190009818B90198F1
:1007C000B0F5A06FF1D12948006800F4003010B1F5
:1007D0000120009001E0002000900098012843D102
:1007E0002348006840F0100021490860084600686E
:1007F00020F0030008600846006840F0020008602E
:100800001A484068194948600846406848600846E8
:10081000406840F4806048600846406820F47C10DE
:1008200048600846406840F4E810486008460068A0
:1008300040F08070086000BF0C48006800F0007055
:100840000028F9D00948406820F0030007494860B3
:100850000846406840F00200486000BF0348406816
:1008600000F00C000828F9D10CBD00000010024077
:100870000020024010B500F0C5F910BD30B51A488F
:1008800000681A4AB0FBF2F1B1F1807F01D3012078
:100890001DE021F07F40401E4FF0E02250615017D4
:1008A0000F22002807DA13071D0E114B00F00F046A
:1008B000241F1D5503E013071C0E0E4B1C5400BFD4
:1008C00000204FF0E022906107201061002008B165
:1008D00000BFFEE74FF0E020006920F001004FF07C
:1008E000E021086130BD00004800002040420F00B8
:1008F00018ED00E000E400E010B51348006840F097
:1009000001001149086008464068104908400E4936
:100910004860084600680E4908400B4908600846D0
:10092000006820F4802008600846406820F4FE003B
:1009300048604FF41F008860FFF727FF4FF000600A
:100940000449086010BD0000001002400000FFF8DC
:10095000FFFFF6FE08ED00E010B51848008800F033
:10096000010080B11648008840F400401449088016
:100970001248008820F001001049088000210F482B
:10098000103800F02BF90E48008800F4004098B1B0
:100990000B480088C0F30E0400200A4908550A4994
:1009A0000A4800F0EDFA00200949086000F080FDD7
:1009B00001200849C1F8A00110BD0000100400404A
:1009C00044000020E0B50020600400200038014011
:1009D000A00121420000214210B51448008800F017
:1009E000010008B312480068401C11490860114812
:1009F000006808B9012000E000200E49803108603D
:100A00000B480068B0F5967F08DB002008490860B5
:100A100000F0E4FC012007498031086003480088A9
:100A200020F001000149088010BD000010080040BE
:100A30000800002020012142002202881D4B98421C
:100A40000ED01D4B98420BD0B0F1804F08D01B4BFD
:100A5000984205D01A4B984202D01A4B984204D1C2
:100A60004FF68F731A404B881A43174B984207D0A2
:100A7000164B984204D04FF6FF431A40CB881A43D6
:100A800002808B8883850B8803850A4B98420BD0A4
:100A9000094B984208D00E4B984205D00D4B984216
:100AA00002D00D4B984201D10B7A03860123838239
:100AB00070470000002C0140003401400004004059
:100AC00000080040000C00400010004000140040EE
:100AD000004001400044014000480140FEB504468A
:100AE0000D4616461F46B4F1804F08D03748844261
:100AF00005D03748844202D0364884424ED1B4F102
:100B0000804F10D13448C06940F001003249C861BB
:100B1000A08940F00100A08102231C223946304602
:100B2000FFF7E4FD3AE02948844210D12A48C06921
:100B300040F002002849C861A08940F00100A0816E
:100B400002231D2239463046FFF7D0FD26E020481B
:100B5000844210D12048C06940F004001E49C86199
:100B6000A08940F00100A08102231E2239463046B0
:100B7000FFF7BCFD12E0174884420FD11648C06948
:100B800040F008001449C861A08940F00100A0812C
:100B90000223322239463046FFF7A8FD05EBC50097
:100BA000C004000CADF8000040F2E730ADF80400DE
:100BB0000020ADF80200ADF8060069462046FFF7B8
:100BC0003BFF208840F001002080FEBD0004004073
:100BD00000080040000C00400010024041B1828932
:100BE00042F001028281028842F00102028007E0A5
:100BF000828922F001028281028822F001020280B1
:100C0000704700000448006820B103480068401E97
:100C100001490860704700001000002000200949C9
:100C2000098801F0200161B10649091D0988C8B28F
:100C30000449091D0880091F098821F02001014A83
:100C400011807047003801402DE9FC5F0746884657
:100C500015461E464FEA0810FFF74EFB82463849FC
:100C600007FB01F0FFF748FB83465146FFF706FB01
:100C700081464846FFF745FB84B22046FFF73CFB20
:100C800049460090FFF7C5FA83464FF08341FFF7CE
:100C9000C3FA8246FFF735FB80B201904FF6FF7032
:100CA00000EA04140198204484B22648806944F282
:100CB000040108432349886102230322491522487D
:100CC000FFF726FC0223002259021F48FFF720FCF1
:100CD0001C48C06840F480401A49C8600846C06893
:100CE00020F48040C86019480480001D008842F24A
:100CF0000C0108431549091D088035B92EB908466D
:100D0000008820F0200008800DE0022325223146D3
:100D10002846FFF7EBFC0D48001D008840F020003E
:100D20000A49091D0880FFF7ABFB08480C30008812
:100D300040F0800005490C310880BDE8FC9F0000B0
:100D400040420F00001002400008014008380140F6
:100D500010B500241A48008800F0200010B318488D
:100D6000008820F0200016490880081D0088C4B2C1
:100D70001448048014480088B0F5007F13DA00207E
:100D8000124908801048008820B901210F482438F2
:100D9000FFF724FF0C4801880088401C0A4A108095
:100DA0000B4844540AE00848008840F400400649D3
:100DB0000880002105482438FFF710FF10BD00000F
:100DC0000044004004380140440000202404004056
:100DD000E0B500202DE9FC5F0746884615461E4613
:100DE0004FEA0810FFF788FA8246374907FB01F0FF
:100DF000FFF782FA83465146FFF740FA814648469C
:100E0000FFF77FFA84B22046FFF776FA4946009052
:100E1000FFF7FFF983464FF08341FFF7FDF9824664
:100E2000FFF76FFA80B201904FF6FF7000EA0414EA
:100E30000198204484B22548806940F00400234989
:100E400088610846806940F0010088610846C069F1
:100E500040F40030C8610223032204211C48FFF73C
:100E600057FB0223002208211948FFF751FB1748BE
:100E7000006940F40030154908610846006920F413
:100E80000030086113480480001D008842F20C0104
:100E900008431049091D088035B92EB90846008855
:100EA00020F0200008800DE002232622314628464B
:100EB000FFF71CFC0748001D008840F02000054992
:100EC000091D0880BDE8FC9F40420F000010024051
:100ED00000080140084400402449098801F020012D
:100EE000002941D02149091D0988C8B21F49098834
:100EF00021F020011D4A11801D49097839B90128C6
:100F000005D101211A4A11701A49087025E01849C3
:100F10000978012907D1032805D10221144A11704B
:100F20001449487019E012490978022915D112496B
:100F30000978114A1278521C0F4B1A70891C0D4AFD
:100F4000505419460978172907D10021084A117011
:100F50001A4611700121094A1170084909780129BE
:100F600002D10021054A117070470000004800407E
:100F70000C000020E0B200200E0000200D00002038
:100F80000EE000BF028802F08002002AFAD011F8B9
:100F9000012B828000BF028802F04002002AFAD0B2
:100FA0000A78002AEDD1704700BFFEE70FB4054B69
:100FB00010B503A9044A029800F018F810BC5DF8B7
:100FC00014FB0000411100085C00002002E008C88A
:100FD000121F08C1002AFAD170477047002001E0B3
:100FE00001C1121F002AFBD1704700002DE9FF4FFD
:100FF00089B09B460446002506E025280BD05A46BA
:101000000B999047641C6D1C20780028F5D10DB019
:101010002846BDE8F08F0027B8460122474900E086
:10102000074314F8013F203B02FA03F00842F7D1CE
:1010300020782E2819D114F8010F47F004072A2828
:101040000ED06FF02F022078A0F1300109290CD8C2
:1010500008EB880102EB410100EB0108641CF2E798
:101060000A98641C50F8048B0A9020780028CED08F
:10107000642808D0692806D075281ED05A460B99D6
:1010800090476D1C58E00A994FF00A0901C90A916E
:10109000002802DA40422D2102E0390504D52B2137
:1010A0008DF82010012103E0F90704D02021F7E793
:1010B0008A4608AE0DE00021FAE70A994FF00A09C6
:1010C00001C90A91F7E74946FFF72FF9303106F8D1
:1010D000011D0028F7D1ADEB060000F120097807CB
:1010E00001D44FF00108C84502DDA8EB090000E07B
:1010F00000208046002706E008A85A46C05D0B99EC
:1011000090476D1C7F1C5745F6DB04E030205A46A3
:101110000B9990476D1CB8F10001A8F10108F5DCAE
:1011200005E016F8010B5A460B9990476D1CB9F172
:101130000001A9F10109F4DC641C65E7092801003C
:1011400000BF054A128802F04002002AF9D0C2B25C
:10115000014B1B1D1A80704700380140FFF78EFBC2
:1011600001231A464FF4E1314820FFF76DFD0223B9
:1011700001224FF416412420FFF72CFE0223002207
:101180000A213148FFF7AAFC00212F48FFF726FD6E
:101190000223012264212D48FFF7A0FC00212B48E7
:1011A000FFF71CFDFFF742FAFFF720FA002108467F
:1011B00000F020F900F08EF825A0FFF7F7FE29A037
:1011C000FFF7F4FE3FE01420FFF78AF92A4800F009
:1011D000B9F82A48007800F00200A8B10020284998
:1011E000086028480068401C2649086008460068D6
:1011F000962809DB0020086001202149086022A010
:10120000FFF7D4FE00F048F91C48008800F40050B5
:10121000C8B100202649086026480068401C2549BE
:1012200008600846006896280DDB0020086022A0B0
:10123000FFF7BCFE00F084F901201D4908604FF45F
:101240007A70FFF74DF9BEE7000400400008004047
:1012500074686520666972737420746573740D0A0E
:1012600000000000746865207365636F6E6420740D
:101270006573740D0A000000001001402600002074
:10128000A001214200000020616C6C6F77696E67DD
:1012900020746865207A6967626565206A6F696E87
:1012A00020746865206E6574776F726B200D0A007C
:1012B0008881224204000020726573746172742078
:1012C00074686520636F6F7264696E61746F7220F9
:1012D0000D0A000000B509494FF42062C8680021DA
:1012E00000F026F805494FF420428868002100F0FC
:1012F0001FF801200149087400BD00002C000020E7
:101300000022002106E00948C06830F8110000B151
:10131000521C491CB1F5A06FF5D3642050434FF423
:10132000A063B0FBF3F0C0B2704700002C000020B7
:1013300030B5034601E003F8011B141EA2F10102BF
:10134000F9D130BD01468A684FF6FF735A4090B21A
:10135000044A128842400240034B1A80014A10801E
:1013600070470000260000202400002000BF05492F
:10137000098801F040010029F9D00249091D0880BF
:1013800070470000004400402DE9F04780460C46BD
:1013900015461E46089F4FF00009404600F0D6F85B
:1013A0000CE03220FFF79CF8324629462046FFF732
:1013B0001BF818B100200849088003E0781E80B2AD
:1013C000071EEED100BF4FF001090FB94FF0000921
:1013D0004846BDE8F08700004400002010B5F12029
:1013E00000F0B4F800210248FFF7F8FB012010BD1F
:1013F0000008004013B582B0044634B9002000F064
:10140000CAF81420FFF76CF81EE0012C1CD1012053
:1014100000F0C1F81420FFF763F80BE06420FFF739
:101420005FF81C48006808B9012000E00020194955
:10143000803108600A20FF231A46222100902020D4
:10144000FFF7A2FF0028E9D112E03220FFF748F8A9
:10145000BDF80C0000F089F83220FFF741F80D4884
:10146000006808B9012000E000200A4980310860C6
:10147000142000909DF80C309DF80D203221302072
:10148000FFF782FF0028E0D0012002498031086088
:1014900004B010BD0881224210B5F12000F056F8CA
:1014A00001210248FFF79AFB012010BD000800400F
:1014B00070B51A48008800F4004058B31848007806
:1014C000FA280DD1164880781549497840EA012557
:1014D000134804792246294612A0FFF767FD19E058
:1014E0000F480078FC2815D10D48407822280FD1EC
:1014F0000B48C078FF2807D109480079FF2803D19D
:1015000001200E49087002E000200C49087000E03C
:1015100000BF00BF00200149088070BD44000020CA
:10152000E0B5002066726F6D2025642073656E64DF
:1015300020646174612025640000000029000020FF
:1015400010B5F42000F002F8012010BD10B50446DB
:10155000FC20FFF70BFF2046FFF708FF0020FFF7F6
:1015600005FFF520FFF702FF10BD01B5FC20FFF7D6
:10157000FDFE3120FFF7FAFE0220FFF7F7FE9DF88F
:101580000100FFF7F3FE9DF80000FFF7EFFEF520E6
:10159000FFF7ECFE08BD10B50446FC20FFF7E6FEA1
:1015A0001120FFF7E3FE0120FFF7E0FE2046FFF7E2
:1015B000DDFEF520FFF7DAFE10BD0000DC150008A7
:1015C0000000002060000000CC0F00083C1600085E
:1015D0006000002080BB0000DC0F0008000000005D
:1015E00000000000000000000000000000000000FB
:1015F000EEDEBE7EEDDDBD7DEBDBBB7BE7D7B777F7
:101600000000000001000000D512000801130008CE
:101610006006002060A6002000000000000000001E
:101620000000000000A24A040000000000000000CA
:0C16300001020304060708090000000086
:0400000508000131BD
:00000001FF
